{
  "_format": "hh-sol-artifact-1",
  "contractName": "MedicalRecord",
  "sourceName": "contracts/MedicalRecord.sol",
  "abi": [
    {
      "inputs": [],
      "stateMutability": "nonpayable",
      "type": "constructor"
    },
    {
      "anonymous": false,
      "inputs": [
        {
          "indexed": false,
          "internalType": "uint256",
          "name": "id",
          "type": "uint256"
        },
        {
          "indexed": false,
          "internalType": "address",
          "name": "patientWalletAddress",
          "type": "address"
        },
        {
          "indexed": false,
          "internalType": "string",
          "name": "patientIPFSHash",
          "type": "string"
        },
        {
          "indexed": false,
          "internalType": "bytes32",
          "name": "txHash",
          "type": "bytes32"
        },
        {
          "indexed": false,
          "internalType": "uint256",
          "name": "dateCreated",
          "type": "uint256"
        }
      ],
      "name": "LogPatientData",
      "type": "event"
    },
    {
      "anonymous": false,
      "inputs": [
        {
          "indexed": false,
          "internalType": "address",
          "name": "patientWalletAddress",
          "type": "address"
        },
        {
          "indexed": false,
          "internalType": "string",
          "name": "testResult",
          "type": "string"
        },
        {
          "indexed": false,
          "internalType": "bytes32",
          "name": "txHash",
          "type": "bytes32"
        },
        {
          "indexed": false,
          "internalType": "uint256",
          "name": "dateCreated",
          "type": "uint256"
        }
      ],
      "name": "LogPatientMedicalReport",
      "type": "event"
    },
    {
      "inputs": [
        {
          "internalType": "bytes32",
          "name": "hash",
          "type": "bytes32"
        }
      ],
      "name": "addHash",
      "outputs": [],
      "stateMutability": "nonpayable",
      "type": "function"
    },
    {
      "inputs": [
        {
          "internalType": "address",
          "name": "_patientWalletAddress",
          "type": "address"
        },
        {
          "internalType": "string",
          "name": "_patientIPFSHash",
          "type": "string"
        }
      ],
      "name": "addPatient",
      "outputs": [],
      "stateMutability": "nonpayable",
      "type": "function"
    },
    {
      "inputs": [
        {
          "internalType": "address",
          "name": "_patientWalletAddress",
          "type": "address"
        },
        {
          "internalType": "string",
          "name": "_testResult",
          "type": "string"
        }
      ],
      "name": "addPatientMedicalReport",
      "outputs": [],
      "stateMutability": "nonpayable",
      "type": "function"
    },
    {
      "inputs": [],
      "name": "getAllpatients",
      "outputs": [
        {
          "components": [
            {
              "internalType": "uint256",
              "name": "id",
              "type": "uint256"
            },
            {
              "internalType": "address",
              "name": "patientWalletAddress",
              "type": "address"
            },
            {
              "internalType": "string",
              "name": "patientIPFSHash",
              "type": "string"
            },
            {
              "internalType": "string[]",
              "name": "reports",
              "type": "string[]"
            },
            {
              "internalType": "bytes32",
              "name": "txHash",
              "type": "bytes32"
            },
            {
              "internalType": "uint256",
              "name": "dateCreated",
              "type": "uint256"
            }
          ],
          "internalType": "struct MedicalRecord.PatientData[]",
          "name": "",
          "type": "tuple[]"
        }
      ],
      "stateMutability": "view",
      "type": "function"
    },
    {
      "inputs": [
        {
          "internalType": "uint256",
          "name": "_index",
          "type": "uint256"
        },
        {
          "internalType": "address",
          "name": "_patientAddress",
          "type": "address"
        }
      ],
      "name": "getPatientData",
      "outputs": [
        {
          "internalType": "uint256",
          "name": "id",
          "type": "uint256"
        },
        {
          "internalType": "address",
          "name": "patientWalletAddress",
          "type": "address"
        },
        {
          "internalType": "string",
          "name": "patientIPFSHash",
          "type": "string"
        },
        {
          "internalType": "string[]",
          "name": "testResult",
          "type": "string[]"
        },
        {
          "internalType": "bytes32",
          "name": "txHash",
          "type": "bytes32"
        },
        {
          "internalType": "uint256",
          "name": "dateCreated",
          "type": "uint256"
        }
      ],
      "stateMutability": "view",
      "type": "function"
    },
    {
      "inputs": [
        {
          "internalType": "uint256",
          "name": "_index",
          "type": "uint256"
        },
        {
          "internalType": "address",
          "name": "_patientAddress",
          "type": "address"
        }
      ],
      "name": "getPatientReport",
      "outputs": [
        {
          "internalType": "address",
          "name": "patientWalletAddress",
          "type": "address"
        },
        {
          "internalType": "string[]",
          "name": "testResult",
          "type": "string[]"
        },
        {
          "internalType": "bytes32",
          "name": "_txHash",
          "type": "bytes32"
        },
        {
          "internalType": "uint256",
          "name": "_dateCreated",
          "type": "uint256"
        }
      ],
      "stateMutability": "view",
      "type": "function"
    },
    {
      "inputs": [],
      "name": "getPatientTestResults",
      "outputs": [
        {
          "components": [
            {
              "internalType": "address",
              "name": "patientWalletAddress",
              "type": "address"
            },
            {
              "internalType": "string",
              "name": "testResult",
              "type": "string"
            },
            {
              "internalType": "bytes32",
              "name": "txHash",
              "type": "bytes32"
            },
            {
              "internalType": "uint256",
              "name": "dateCreated",
              "type": "uint256"
            }
          ],
          "internalType": "struct MedicalRecord.PatientMedicalReport[]",
          "name": "",
          "type": "tuple[]"
        }
      ],
      "stateMutability": "view",
      "type": "function"
    },
    {
      "inputs": [
        {
          "internalType": "address",
          "name": "",
          "type": "address"
        }
      ],
      "name": "isExist",
      "outputs": [
        {
          "internalType": "bool",
          "name": "",
          "type": "bool"
        }
      ],
      "stateMutability": "view",
      "type": "function"
    },
    {
      "inputs": [],
      "name": "owner",
      "outputs": [
        {
          "internalType": "address",
          "name": "",
          "type": "address"
        }
      ],
      "stateMutability": "view",
      "type": "function"
    },
    {
      "inputs": [],
      "name": "patientId",
      "outputs": [
        {
          "internalType": "uint256",
          "name": "_value",
          "type": "uint256"
        }
      ],
      "stateMutability": "view",
      "type": "function"
    },
    {
      "inputs": [
        {
          "internalType": "uint256",
          "name": "",
          "type": "uint256"
        }
      ],
      "name": "patientReports",
      "outputs": [
        {
          "internalType": "address",
          "name": "patientWalletAddress",
          "type": "address"
        },
        {
          "internalType": "string",
          "name": "testResult",
          "type": "string"
        },
        {
          "internalType": "bytes32",
          "name": "txHash",
          "type": "bytes32"
        },
        {
          "internalType": "uint256",
          "name": "dateCreated",
          "type": "uint256"
        }
      ],
      "stateMutability": "view",
      "type": "function"
    },
    {
      "inputs": [
        {
          "internalType": "uint256",
          "name": "",
          "type": "uint256"
        }
      ],
      "name": "patients",
      "outputs": [
        {
          "internalType": "uint256",
          "name": "id",
          "type": "uint256"
        },
        {
          "internalType": "address",
          "name": "patientWalletAddress",
          "type": "address"
        },
        {
          "internalType": "string",
          "name": "patientIPFSHash",
          "type": "string"
        },
        {
          "internalType": "bytes32",
          "name": "txHash",
          "type": "bytes32"
        },
        {
          "internalType": "uint256",
          "name": "dateCreated",
          "type": "uint256"
        }
      ],
      "stateMutability": "view",
      "type": "function"
    }
  ],
  "bytecode": "0x608060405234801561001057600080fd5b5033600360006101000a81548173ffffffffffffffffffffffffffffffffffffffff021916908373ffffffffffffffffffffffffffffffffffffffff16021790555061277c806100616000396000f3fe608060405234801561001057600080fd5b50600436106100b35760003560e01c80636df0b3a2116100715780636df0b3a2146101915780638da5cb5b146101c457806393119a83146101e2578063ba3127ec14610216578063db66c06014610249578063e07f444414610265576100b3565b806213eb4b146100b8578063047e6ea7146100e857806308ca42d714610106578063435d79351461013b57806343e08ad1146101595780635418754214610175575b600080fd5b6100d260048036038101906100cd9190611a49565b610283565b6040516100df91906120fb565b60405180910390f35b6100f06102a3565b6040516100fd91906120b7565b60405180910390f35b610120600480360381019061011b9190611b18565b610571565b604051610132969594939291906121f1565b60405180910390f35b61014361099d565b60405161015091906120d9565b60405180910390f35b610173600480360381019061016e9190611ac6565b610b88565b005b61018f600480360381019061018a9190611a72565b610c45565b005b6101ab60048036038101906101a69190611aef565b610fd2565b6040516101bb949392919061206b565b60405180910390f35b6101cc6110ba565b6040516101d99190612004565b60405180910390f35b6101fc60048036038101906101f79190611aef565b6110e0565b60405161020d959493929190612260565b60405180910390f35b610230600480360381019061022b9190611b18565b6111ce565b604051610240949392919061201f565b60405180910390f35b610263600480360381019061025e9190611a72565b6114d0565b005b61026d61180b565b60405161027a91906121d6565b60405180910390f35b60046020528060005260406000206000915054906101000a900460ff1681565b6060600360009054906101000a900473ffffffffffffffffffffffffffffffffffffffff1673ffffffffffffffffffffffffffffffffffffffff163373ffffffffffffffffffffffffffffffffffffffff1614610335576040517f08c379a000000000000000000000000000000000000000000000000000000000815260040161032c90612176565b60405180910390fd5b6001805480602002602001604051908101604052809291908181526020016000905b8282101561056857838290600052602060002090600602016040518060c0016040529081600082015481526020016001820160009054906101000a900473ffffffffffffffffffffffffffffffffffffffff1673ffffffffffffffffffffffffffffffffffffffff1673ffffffffffffffffffffffffffffffffffffffff1681526020016002820180546103ea906124c1565b80601f0160208091040260200160405190810160405280929190818152602001828054610416906124c1565b80156104635780601f1061043857610100808354040283529160200191610463565b820191906000526020600020905b81548152906001019060200180831161044657829003601f168201915b5050505050815260200160038201805480602002602001604051908101604052809291908181526020016000905b8282101561053d5783829060005260206000200180546104b0906124c1565b80601f01602080910402602001604051908101604052809291908181526020018280546104dc906124c1565b80156105295780601f106104fe57610100808354040283529160200191610529565b820191906000526020600020905b81548152906001019060200180831161050c57829003601f168201915b505050505081526020019060010190610491565b5050505081526020016004820154815260200160058201548152505081526020019060010190610357565b50505050905090565b60008060608060008086600360009054906101000a900473ffffffffffffffffffffffffffffffffffffffff1673ffffffffffffffffffffffffffffffffffffffff163373ffffffffffffffffffffffffffffffffffffffff16148061060257508073ffffffffffffffffffffffffffffffffffffffff163373ffffffffffffffffffffffffffffffffffffffff16145b610641576040517f08c379a000000000000000000000000000000000000000000000000000000000815260040161063890612176565b60405180910390fd5b6001898154811061067b577f4e487b7100000000000000000000000000000000000000000000000000000000600052603260045260246000fd5b90600052602060002090600602016000015460018a815481106106c7577f4e487b7100000000000000000000000000000000000000000000000000000000600052603260045260246000fd5b906000526020600020906006020160010160009054906101000a900473ffffffffffffffffffffffffffffffffffffffff1660018b81548110610733577f4e487b7100000000000000000000000000000000000000000000000000000000600052603260045260246000fd5b906000526020600020906006020160020160018c8154811061077e577f4e487b7100000000000000000000000000000000000000000000000000000000600052603260045260246000fd5b906000526020600020906006020160030160018d815481106107c9577f4e487b7100000000000000000000000000000000000000000000000000000000600052603260045260246000fd5b90600052602060002090600602016004015460018e81548110610815577f4e487b7100000000000000000000000000000000000000000000000000000000600052603260045260246000fd5b906000526020600020906006020160050154838054610833906124c1565b80601f016020809104026020016040519081016040528092919081815260200182805461085f906124c1565b80156108ac5780601f10610881576101008083540402835291602001916108ac565b820191906000526020600020905b81548152906001019060200180831161088f57829003601f168201915b5050505050935082805480602002602001604051908101604052809291908181526020016000905b828210156109805783829060005260206000200180546108f3906124c1565b80601f016020809104026020016040519081016040528092919081815260200182805461091f906124c1565b801561096c5780601f106109415761010080835404028352916020019161096c565b820191906000526020600020905b81548152906001019060200180831161094f57829003601f168201915b5050505050815260200190600101906108d4565b505050509250965096509650965096509650509295509295509295565b6060600360009054906101000a900473ffffffffffffffffffffffffffffffffffffffff1673ffffffffffffffffffffffffffffffffffffffff163373ffffffffffffffffffffffffffffffffffffffff1614610a2f576040517f08c379a0000000000000000000000000000000000000000000000000000000008152600401610a2690612176565b60405180910390fd5b6002805480602002602001604051908101604052809291908181526020016000905b82821015610b7f57838290600052602060002090600402016040518060800160405290816000820160009054906101000a900473ffffffffffffffffffffffffffffffffffffffff1673ffffffffffffffffffffffffffffffffffffffff1673ffffffffffffffffffffffffffffffffffffffff168152602001600182018054610ada906124c1565b80601f0160208091040260200160405190810160405280929190818152602001828054610b06906124c1565b8015610b535780601f10610b2857610100808354040283529160200191610b53565b820191906000526020600020905b815481529060010190602001808311610b3657829003601f168201915b505050505081526020016002820154815260200160038201548152505081526020019060010190610a51565b50505050905090565b6000600190506000610b9a6000611817565b905060008111610bdf576040517f08c379a0000000000000000000000000000000000000000000000000000000008152600401610bd690612156565b60405180910390fd5b600060018383610bef91906123f9565b81548110610c26577f4e487b7100000000000000000000000000000000000000000000000000000000600052603260045260246000fd5b9060005260206000209060060201905083816004018190555050505050565b600360009054906101000a900473ffffffffffffffffffffffffffffffffffffffff1673ffffffffffffffffffffffffffffffffffffffff163373ffffffffffffffffffffffffffffffffffffffff1614610cd5576040517f08c379a0000000000000000000000000000000000000000000000000000000008152600401610ccc90612176565b60405180910390fd5b6000815111610d19576040517f08c379a0000000000000000000000000000000000000000000000000000000008152600401610d1090612116565b60405180910390fd5b60008043409050600042905060005b600180549050811015610eae578573ffffffffffffffffffffffffffffffffffffffff1660018281548110610d86577f4e487b7100000000000000000000000000000000000000000000000000000000600052603260045260246000fd5b906000526020600020906006020160010160009054906101000a900473ffffffffffffffffffffffffffffffffffffffff1673ffffffffffffffffffffffffffffffffffffffff161415610e9b576001935060018181548110610e12577f4e487b7100000000000000000000000000000000000000000000000000000000600052603260045260246000fd5b906000526020600020906006020160030185908060018154018082558091505060019003906000526020600020016000909190919091509080519060200190610e5c92919061183b565b507fd5e1dc8c146b8b7ee8f95f643bd435a54b0b6dfa4379b07c20f8a5f293a29b7c86868585604051610e92949392919061206b565b60405180910390a15b8080610ea690612524565b915050610d28565b5082610eef576040517f08c379a0000000000000000000000000000000000000000000000000000000008152600401610ee6906121b6565b60405180910390fd5b600260405180608001604052808773ffffffffffffffffffffffffffffffffffffffff16815260200186815260200184815260200183815250908060018154018082558091505060019003906000526020600020906004020160009091909190915060008201518160000160006101000a81548173ffffffffffffffffffffffffffffffffffffffff021916908373ffffffffffffffffffffffffffffffffffffffff1602179055506020820151816001019080519060200190610fb492919061183b565b50604082015181600201556060820151816003015550505050505050565b60028181548110610fe257600080fd5b90600052602060002090600402016000915090508060000160009054906101000a900473ffffffffffffffffffffffffffffffffffffffff169080600101805461102b906124c1565b80601f0160208091040260200160405190810160405280929190818152602001828054611057906124c1565b80156110a45780601f10611079576101008083540402835291602001916110a4565b820191906000526020600020905b81548152906001019060200180831161108757829003601f168201915b5050505050908060020154908060030154905084565b600360009054906101000a900473ffffffffffffffffffffffffffffffffffffffff1681565b600181815481106110f057600080fd5b90600052602060002090600602016000915090508060000154908060010160009054906101000a900473ffffffffffffffffffffffffffffffffffffffff169080600201805461113f906124c1565b80601f016020809104026020016040519081016040528092919081815260200182805461116b906124c1565b80156111b85780601f1061118d576101008083540402835291602001916111b8565b820191906000526020600020905b81548152906001019060200180831161119b57829003601f168201915b5050505050908060040154908060050154905085565b6000606060008084600360009054906101000a900473ffffffffffffffffffffffffffffffffffffffff1673ffffffffffffffffffffffffffffffffffffffff163373ffffffffffffffffffffffffffffffffffffffff16148061125d57508073ffffffffffffffffffffffffffffffffffffffff163373ffffffffffffffffffffffffffffffffffffffff16145b61129c576040517f08c379a000000000000000000000000000000000000000000000000000000000815260040161129390612176565b60405180910390fd5b600287815481106112d6577f4e487b7100000000000000000000000000000000000000000000000000000000600052603260045260246000fd5b906000526020600020906004020160000160009054906101000a900473ffffffffffffffffffffffffffffffffffffffff1660018881548110611342577f4e487b7100000000000000000000000000000000000000000000000000000000600052603260045260246000fd5b90600052602060002090600602016003016002898154811061138d577f4e487b7100000000000000000000000000000000000000000000000000000000600052603260045260246000fd5b90600052602060002090600402016002015460028a815481106113d9577f4e487b7100000000000000000000000000000000000000000000000000000000600052603260045260246000fd5b90600052602060002090600402016003015482805480602002602001604051908101604052809291908181526020016000905b828210156114b857838290600052602060002001805461142b906124c1565b80601f0160208091040260200160405190810160405280929190818152602001828054611457906124c1565b80156114a45780601f10611479576101008083540402835291602001916114a4565b820191906000526020600020905b81548152906001019060200180831161148757829003601f168201915b50505050508152602001906001019061140c565b50505050925094509450945094505092959194509250565b600360009054906101000a900473ffffffffffffffffffffffffffffffffffffffff1673ffffffffffffffffffffffffffffffffffffffff163373ffffffffffffffffffffffffffffffffffffffff1614611560576040517f08c379a000000000000000000000000000000000000000000000000000000000815260040161155790612176565b60405180910390fd5b60011515600460008473ffffffffffffffffffffffffffffffffffffffff1673ffffffffffffffffffffffffffffffffffffffff16815260200190815260200160002060009054906101000a900460ff16151514156115f4576040517f08c379a00000000000000000000000000000000000000000000000000000000081526004016115eb90612136565b60405180910390fd5b6000815111611638576040517f08c379a000000000000000000000000000000000000000000000000000000000815260040161162f90612196565b60405180910390fd5b60006116446000611817565b90506060600043409050600042905060016040518060c001604052808681526020018873ffffffffffffffffffffffffffffffffffffffff1681526020018781526020018581526020018481526020018381525090806001815401808255809150506001900390600052602060002090600602016000909190919091506000820151816000015560208201518160010160006101000a81548173ffffffffffffffffffffffffffffffffffffffff021916908373ffffffffffffffffffffffffffffffffffffffff160217905550604082015181600201908051906020019061172e92919061183b565b50606082015181600301908051906020019061174b9291906118c1565b506080820151816004015560a08201518160050155505061176c6000611825565b6001600460008873ffffffffffffffffffffffffffffffffffffffff1673ffffffffffffffffffffffffffffffffffffffff16815260200190815260200160002060006101000a81548160ff0219169083151502179055507f2e42963c20afb77b4cb52cc774c84b1a34230ade33265552016c8e8453ed480884878785856040516117fb959493929190612260565b60405180910390a1505050505050565b60008060000154905081565b600081600001549050919050565b6001816000016000828254019250508190555050565b828054611847906124c1565b90600052602060002090601f01602090048101928261186957600085556118b0565b82601f1061188257805160ff19168380011785556118b0565b828001600101855582156118b0579182015b828111156118af578251825591602001919060010190611894565b5b5090506118bd9190611921565b5090565b828054828255906000526020600020908101928215611910579160200282015b8281111561190f5782518290805190602001906118ff92919061183b565b50916020019190600101906118e1565b5b50905061191d919061193e565b5090565b5b8082111561193a576000816000905550600101611922565b5090565b5b8082111561195e57600081816119559190611962565b5060010161193f565b5090565b50805461196e906124c1565b6000825580601f10611980575061199f565b601f01602090049060005260206000209081019061199e9190611921565b5b50565b60006119b56119b0846122df565b6122ba565b9050828152602081018484840111156119cd57600080fd5b6119d884828561247f565b509392505050565b6000813590506119ef81612701565b92915050565b600081359050611a0481612718565b92915050565b600082601f830112611a1b57600080fd5b8135611a2b8482602086016119a2565b91505092915050565b600081359050611a438161272f565b92915050565b600060208284031215611a5b57600080fd5b6000611a69848285016119e0565b91505092915050565b60008060408385031215611a8557600080fd5b6000611a93858286016119e0565b925050602083013567ffffffffffffffff811115611ab057600080fd5b611abc85828601611a0a565b9150509250929050565b600060208284031215611ad857600080fd5b6000611ae6848285016119f5565b91505092915050565b600060208284031215611b0157600080fd5b6000611b0f84828501611a34565b91505092915050565b60008060408385031215611b2b57600080fd5b6000611b3985828601611a34565b9250506020611b4a858286016119e0565b9150509250929050565b6000611b608383611daf565b905092915050565b6000611b748383611ef3565b905092915050565b6000611b888383611f83565b905092915050565b611b998161242d565b82525050565b611ba88161242d565b82525050565b6000611bb982612340565b611bc38185612393565b935083602082028501611bd585612310565b8060005b85811015611c115784840389528151611bf28582611b54565b9450611bfd8361236c565b925060208a01995050600181019050611bd9565b50829750879550505050505092915050565b6000611c2e82612340565b611c3881856123a4565b935083602082028501611c4a85612310565b8060005b85811015611c865784840389528151611c678582611b54565b9450611c728361236c565b925060208a01995050600181019050611c4e565b50829750879550505050505092915050565b6000611ca38261234b565b611cad81856123b5565b935083602082028501611cbf85612320565b8060005b85811015611cfb5784840389528151611cdc8582611b68565b9450611ce783612379565b925060208a01995050600181019050611cc3565b50829750879550505050505092915050565b6000611d1882612356565b611d2281856123c6565b935083602082028501611d3485612330565b8060005b85811015611d705784840389528151611d518582611b7c565b9450611d5c83612386565b925060208a01995050600181019050611d38565b50829750879550505050505092915050565b611d8b8161243f565b82525050565b611d9a8161244b565b82525050565b611da98161244b565b82525050565b6000611dba82612361565b611dc481856123d7565b9350611dd481856020860161248e565b611ddd816125fa565b840191505092915050565b6000611df382612361565b611dfd81856123e8565b9350611e0d81856020860161248e565b611e16816125fa565b840191505092915050565b6000611e2e6019836123e8565b9150611e398261260b565b602082019050919050565b6000611e51601c836123e8565b9150611e5c82612634565b602082019050919050565b6000611e74601e836123e8565b9150611e7f8261265d565b602082019050919050565b6000611e976015836123e8565b9150611ea282612686565b602082019050919050565b6000611eba6012836123e8565b9150611ec5826126af565b602082019050919050565b6000611edd601d836123e8565b9150611ee8826126d8565b602082019050919050565b600060c083016000830151611f0b6000860182611fe6565b506020830151611f1e6020860182611b90565b5060408301518482036040860152611f368282611daf565b91505060608301518482036060860152611f508282611bae565b9150506080830151611f656080860182611d91565b5060a0830151611f7860a0860182611fe6565b508091505092915050565b6000608083016000830151611f9b6000860182611b90565b5060208301518482036020860152611fb38282611daf565b9150506040830151611fc86040860182611d91565b506060830151611fdb6060860182611fe6565b508091505092915050565b611fef81612475565b82525050565b611ffe81612475565b82525050565b60006020820190506120196000830184611b9f565b92915050565b60006080820190506120346000830187611b9f565b81810360208301526120468186611c23565b90506120556040830185611da0565b6120626060830184611ff5565b95945050505050565b60006080820190506120806000830187611b9f565b81810360208301526120928186611de8565b90506120a16040830185611da0565b6120ae6060830184611ff5565b95945050505050565b600060208201905081810360008301526120d18184611c98565b905092915050565b600060208201905081810360008301526120f38184611d0d565b905092915050565b60006020820190506121106000830184611d82565b92915050565b6000602082019050818103600083015261212f81611e21565b9050919050565b6000602082019050818103600083015261214f81611e44565b9050919050565b6000602082019050818103600083015261216f81611e67565b9050919050565b6000602082019050818103600083015261218f81611e8a565b9050919050565b600060208201905081810360008301526121af81611ead565b9050919050565b600060208201905081810360008301526121cf81611ed0565b9050919050565b60006020820190506121eb6000830184611ff5565b92915050565b600060c0820190506122066000830189611ff5565b6122136020830188611b9f565b81810360408301526122258187611de8565b905081810360608301526122398186611c23565b90506122486080830185611da0565b61225560a0830184611ff5565b979650505050505050565b600060a0820190506122756000830188611ff5565b6122826020830187611b9f565b81810360408301526122948186611de8565b90506122a36060830185611da0565b6122b06080830184611ff5565b9695505050505050565b60006122c46122d5565b90506122d082826124f3565b919050565b6000604051905090565b600067ffffffffffffffff8211156122fa576122f96125cb565b5b612303826125fa565b9050602081019050919050565b6000819050602082019050919050565b6000819050602082019050919050565b6000819050602082019050919050565b600081519050919050565b600081519050919050565b600081519050919050565b600081519050919050565b6000602082019050919050565b6000602082019050919050565b6000602082019050919050565b600082825260208201905092915050565b600082825260208201905092915050565b600082825260208201905092915050565b600082825260208201905092915050565b600082825260208201905092915050565b600082825260208201905092915050565b600061240482612475565b915061240f83612475565b9250828210156124225761242161256d565b5b828203905092915050565b600061243882612455565b9050919050565b60008115159050919050565b6000819050919050565b600073ffffffffffffffffffffffffffffffffffffffff82169050919050565b6000819050919050565b82818337600083830152505050565b60005b838110156124ac578082015181840152602081019050612491565b838111156124bb576000848401525b50505050565b600060028204905060018216806124d957607f821691505b602082108114156124ed576124ec61259c565b5b50919050565b6124fc826125fa565b810181811067ffffffffffffffff8211171561251b5761251a6125cb565b5b80604052505050565b600061252f82612475565b91507fffffffffffffffffffffffffffffffffffffffffffffffffffffffffffffffff8214156125625761256161256d565b5b600182019050919050565b7f4e487b7100000000000000000000000000000000000000000000000000000000600052601160045260246000fd5b7f4e487b7100000000000000000000000000000000000000000000000000000000600052602260045260246000fd5b7f4e487b7100000000000000000000000000000000000000000000000000000000600052604160045260246000fd5b6000601f19601f8301169050919050565b7f456e74657220612076616c6964207465737420726573756c7400000000000000600082015250565b7f50617469656e74207265636f726420616c726561647920657869737400000000600082015250565b7f4e6f2070726576696f7573207472616e73616374696f6e206578697374730000600082015250565b7f596f7520617265206e6f7420746865206f776e65720000000000000000000000600082015250565b7f4950465320486173682072657175697265640000000000000000000000000000600082015250565b7f50617469656e74207265636f726420646f6573206e6f74206578697374000000600082015250565b61270a8161242d565b811461271557600080fd5b50565b6127218161244b565b811461272c57600080fd5b50565b61273881612475565b811461274357600080fd5b5056fea264697066735822122086e408e3b5b01f10eb918f45273dfac920ebf843653dc88a892110343d944dcd64736f6c63430008040033",
  "linkReferences": {},
  "deployedLinkReferences": {}
}